:020000040800F2
:10000000F0120020010100083D0A0008ED08000878
:10001000390A000801040008C9190008000000009E
:10002000000000000000000000000000610E000859
:100030000504000800000000A50B00084D0F000893
:100040001B0100081B0100081B0100081B01000820
:100050001B0100081B0100081B010008090400081F
:100060001B0100081B0100081B0100081B01000800
:100070001B0100081B0100081B0100081B010008F0
:100080001B0100081B0100081B0100081B010008E0
:100090001B0100081B0100081B0100085104000897
:1000A0001B0100081B0100081B0100081B010008C0
:1000B000B10F0008CD0F0008991000081B010008BF
:1000C0001B0100081B0100081B0100081B010008A0
:1000D0001B010008391600089D1600083517000896
:1000E0001B0100081B0100081B010008DFF80CD0F1
:1000F00000F0D2F8004800472D230008F01200203D
:100100000648804706480047FEE7FEE7FEE7FEE7B1
:10011000FEE7FEE7FEE7FEE7FEE7FEE7510F000819
:10012000ED00000840EA01039B0703D009E008C97D
:10013000121F08C0042AFAD203E011F8013B00F8AC
:10014000013B521EF9D27047C10F80EAE0700844AB
:10015000CA079623002100F071B800F0004220F099
:100160000040C10DC0F3160040F400007F2901DA01
:1001700000207047962903DCC1F19601C84001E0D8
:1001800096398840002AF4D04042704720F0004061
:10019000C10DC0F3160040F400007F2901DA0020F1
:1001A0007047962903DCC1F19601C8407047963923
:1001B00088407047002801DBC0F10040002901DBC6
:1001C000C1F10041884270472DE9F05F05460020EB
:1001D00092469B4688460646814640241BE02846B8
:1001E00041464746224600F078F853465A46C01A20
:1001F000914110D311461846224600F05FF82D1A9F
:1002000067EB01084F4622460120002100F056F816
:1002100017EB00094E41201EA4F10104DFDC484623
:1002200031462A464346BDE8F09F0029A8BF7047E3
:10023000401C490008BF20F00100704710B4B0FA1C
:1002400080FC00FA0CF050EA010404BF10BC7047B7
:1002500049B1CCF1200421FA04F411FA0CF118BFD1
:10026000012121430843A3EB0C01CB1D4FEA0061A0
:100270004FEA102042BF002010BC704700EBC35073
:1002800010440029A4BF10BC7047401C490008BF9F
:1002900020F0010010BC7047064C074D06E0E068F6
:1002A00040F0010394E8070098471034AC42F6D3BD
:1002B000FFF720FF6C3300088C330008202A04DB92
:1002C000203A00FA02F1002070479140C2F1200369
:1002D00020FA03F3194390407047202A04DB203AA8
:1002E00021FA02F00021704721FA02F3D040C2F156
:1002F0002002914008431946704770B58C1810F8D9
:10030000015B15F0070301D110F8013B2A1106D15A
:1003100010F8012B03E010F8016B01F8016B5B1E74
:10032000F9D12B0705D40023521E0DD401F8013B4F
:10033000FAE710F8013BCB1A921C03E013F8015BBB
:1003400001F8015B521EF9D5A142D8D3002070BD3F
:1003500010B500F005FB00F043F810BD70B5034682
:10036000002033E00021002280251A4E3560002451
:1003700020E04FF40075184E35604FF6FF7505EA22
:100380004101154D0C3D2D6805F480750DB141F00E
:1003900001014FF6FF7505EA4202104DAD6805F008
:1003A00010050DB142F001024FF400750A4E361FE0
:1003B0003560641C0E2CDCD38025064E361F35605C
:1003C00023F81010051D23F81520401C0428C9D35C
:1003D00070BD000014080140140C014000100140E1
:1003E00010B54021054800F07DFA4021034800F097
:1003F0007BFA4021014800F075FA10BD000C014065
:1004000000BFFEE77047000010B502210E4800F063
:1004100060FA18B901210D4800F067FE02210A4870
:1004200000F057FA012807D10021084800F05DFECE
:100430000020064924310880022000F05FF810B146
:10044000022000F043F810BD000C014000080040FD
:100450001CB5202000F052F840B300208DF80600B3
:100460001348FFF77BFF13490968082202EB0111CB
:10047000114A881810220E49FFF754FE0D480068F3
:10048000401C0C49086001200C49087009480068AC
:100490000A2802D1002007490860202000F010F847
:1004A000202000F013F801208DF806001CBD00008C
:1004B00064020020E000002074020020FB00002005
:1004C00001490860704700001404014001490860B8
:1004D0007047000014040140002006490860091D0F
:1004E0000860091D0860091D0860034801491431AE
:1004F0000860704700040140FFFF0F000146002024
:100500000022074B1B6803EA0102054B14331B68EA
:100510000B4013B10AB1012000E000207047000039
:1005200000040140002123498279002A3AD00A467A
:10053000126803689A430B461A600A1D1268036822
:100540009A430B1D1A60027911440A6803681A4322
:100550000A60184A0832126803689A43154B083338
:100560001A601A1D126803689A43124B0C331A6002
:100570004279102A0ED11A1F126803681A430D4BD4
:1005800008331A601A1D126803681A43094B0C33AA
:100590001A600DE00749427911440A6803681A435A
:1005A0000A6005E0027911440A6803689A430A6008
:1005B00070470000000401401FB5FFF78DFF2020A9
:1005C000ADF80C0003208DF80E0028208DF80F00E8
:1005D00003A9154800F0F2F80521012000F0CEF83B
:1005E0002020FFF773FF2020019000208DF80800E5
:1005F0000C208DF8090001208DF80A0001A8FFF7F2
:1006000091FF4FF4E06000F065FA17208DF80000CC
:1006100001208DF801008DF802008DF80300684676
:1006200000F020FA1FBD0000000C01400149C86025
:10063000704700000020024030B5044604254FF406
:10064000302000F06FF80546042D17D10C480069E2
:1006500040F002000A49086108464461006940F020
:10066000400008614FF4302000F05CF80546044873
:10067000006941F6FD71084001490861284630BD16
:100680000020024004200B49C96801F0010109B1B2
:1006900001200EE00749C96801F0040109B10220F8
:1006A00007E00449C96801F0100109B1032000E026
:1006B00004207047002002400348006940F0800099
:1006C00001490861704700000020024070B50446EF
:1006D0000D460426F00200F025F80646042E11D13E
:1006E0000948006940F00100074908612580F002CF
:1006F00000F018F806460448006941F6FE7108400B
:1007000001490861304670BD00200240024803499B
:100710004860034848607047230167450020024055
:10072000AB89EFCD00B502460423FFF7ABFF0346CC
:1007300003E0FFF7A7FF0346521E012B01D1002A59
:10074000F7D102B90523184600BD000070B5044674
:100750000D460426FFF7DAFF3520FFF767FF042E6A
:1007600006D1054901EB44002946FFF7AFFF0646D5
:10077000FFF7A2FF70BD000000F8070830B50022A7
:100780008B071C0F0F2303FA04F20B4B8C1053F84A
:1007900024309343084C8D1044F8253023468C10A8
:1007A00053F824308C07240F00FA04F42343024C3E
:1007B0008D1044F8253030BD080001402DE9F0418E
:1007C000024600250026002000230024002791F87F
:1007D00003C00CF00F0591F803C00CF0100CBCF135
:1007E000000F03D091F802C04CEA050591F800C053
:1007F000BCF1000F31D0146800202BE04FF0010C49
:100800000CFA00F3B1F800C00CEA03069E4220D1B6
:1008100083004FF00F0C0CFA03F7BC4305FA03FCFE
:100820004CEA040491F803C0BCF1280F06D14FF044
:10083000010C0CFA00FCC2F814C00AE091F803C0E5
:10084000BCF1480F05D14FF0010C0CFA00FCC2F8C6
:1008500010C0401C0828D1D31460B1F800C0BCF10E
:10086000FF0F34DD546800202EE000F1080C4FF03B
:10087000010808FA0CF3B1F800C00CEA03069E4226
:1008800021D183004FF00F0C0CFA03F7BC4305FA9B
:1008900003FC4CEA040491F803C0BCF1280F05D115
:1008A00000F1080C08FA0CF8C2F8148091F803C0A3
:1008B000BCF1480F07D100F1080C4FF0010808FA0D
:1008C0000CF8C2F81080401C0828CED35460BDE854
:1008D000F0810246002093680B400BB1012000E03C
:1008E00000207047416170470161704700BFFEE71B
:1008F00070B50446002501F00FFDC4F3074000F079
:1009000010F8C4F3072000F00CF804F0F80000F031
:1009100008F8002000F005F8054601F002FD284621
:1009200070BD10B50446204600F052FA10BD70B5F7
:1009300004460D4601F0F0FCC4F30740FFF7F1FF59
:10094000C4F30720FFF7EDFF04F0F801091DC8B25A
:10095000FFF7E7FF2846FFF7E4FF01F0E2FC70BD78
:1009600008B501211C2000F03FF92F48806940F0B4
:1009700009002D4988614815ADF8000003208DF865
:10098000020010208DF8030069462848FFF716FF83
:100990004FF48070ADF8000003208DF8020048206D
:1009A0008DF8030069462148FFF708FF1020ADF8D5
:1009B000000003208DF8020048208DF803006946EE
:1009C0001B48FFF7FBFEC020ADF8000003208DF8A8
:1009D000020010208DF8030069461448FFF7EEFE70
:1009E00040211248FFF780FF80211048FFF77CFF6D
:1009F0008020ADF8000003208DF8020010208DF853
:100A0000030069460B48FFF7D9FE2020ADF800002F
:100A100003208DF8020048208DF803006946034842
:100A2000FFF7CCFE08BD000000100240000C0140A2
:100A3000001001400008014000BFFEE7704708B504
:100A40004FF4E06000F046F825208DF8000001200A
:100A50008DF801008DF802008DF80300684600F063
:100A600001F808BD70B5002100230F22C47804B33B
:100A7000154C246804F4E064C4F5E064210AC1F173
:100A80000403CA40447804FA03F1847814402143F3
:100A900009010E4C0678A155047804F01F050124C5
:100AA000AC4005786D11AD0005F1E025C5F80041B9
:100AB00009E0047804F01F050124AC40044D0678D9
:100AC000761145F8264070BD0CED00E000E400E032
:100AD00080E100E002490143024A116070470000D2
:100AE0000000FA050CED00E000B589B08020ADF8FB
:100AF000200018208DF8230003208DF8220008A97B
:100B00002548FFF75BFE0121042000F04DF8234843
:100B100000F000FB40F2E730ADF808005B20ADF8D4
:100B200004000020ADF80A0000211C4800F0E9FA9A
:100B300000208DF80C0001A9184800F059FC702025
:100B4000ADF810000120ADF812000020ADF816003D
:100B5000ADF8180004A9114800F0EAFB08210F487D
:100B600000F038FC01210D4800F0B0FA01210B48DB
:100B700000F0BBFABDF8080000EBD0714910074A3D
:100B800038321180BDF808004FF47A7191FBF0F013
:100B90000349086009B000BD000C01400008004096
:100BA000E40000207047000029B1064AD2690243E0
:100BB000044BDA6104E0034AD2698243014BDA61F3
:100BC000704700000010024029B1064A1269024332
:100BD000044B1A6104E0034A12698243014B1A6113
:100BE000704700000010024029B1064A9269024392
:100BF000044B9A6104E0034A92698243014B9A6173
:100C0000704700000010024029B1064AD268024332
:100C1000044BDA6004E0034AD2688243014BDA6095
:100C2000704700000010024030B50021002200246F
:100C300000232D4D6D6805F00C0121B1042905D06C
:100C4000082923D105E0294D056022E0274D0560E4
:100C50001FE0254D6D6805F47012234D6D6805F495
:100C60008034022505EB92421CB9214D55430560A5
:100C70000BE01D4D6D6805F400351DB11C4D55434D
:100C8000056002E0194D5543056002E0174D05600F
:100C900000BF00BF144D6D6805F0F0010909154D46
:100CA0006B5C0568DD4045600F4D6D6805F4E061E3
:100CB000090A104D6B5C4568DD4085600A4D6D6822
:100CC00005F46051C90A0B4D6B5C4568DD40C56099
:100CD000054D6D6805F44041890B074D6B5CC56897
:100CE000B5FBF3F5056130BD0010024000127A003B
:100CF00000093D00000000201000002021B1028802
:100D000042F04002028004E002884FF6BF731A40AE
:100D10000280704700B587B001210C20FFF764FF07
:100D200001218803FFF740FF4FF40050ADF80400A5
:100D300003208DF8060018208DF8070001A922482D
:100D4000FFF73CFD4FF48040ADF8040001A91E48B8
:100D5000FFF734FD4FF40040ADF8040001A91A4834
:100D6000FFF72CFD4FF48050ADF8040010208DF8F3
:100D7000070001A91448FFF721FD0020ADF8080085
:100D80004FF48270ADF80A000020ADF80C0002208C
:100D9000ADF80E000120ADF810004002ADF81200D1
:100DA0000820ADF814000020ADF816000720ADF8BB
:100DB000180002A9054800F035F801210348FFF7A3
:100DC0009DFF07B000BD0000000C0140003800404E
:100DD00010B5044600BF02210A4800F015F80028AB
:100DE000F9D02146074800F01BF800BF0121054853
:100DF00000F00AF80028F9D0024800F00EF8C0B25E
:100E000010BD0000003800400246002013890B404E
:100E10000BB1012000E0002070470146888970472F
:100E20008181704710B50022028802F441520B887C
:100E30004C8823438C882343CC8823430C89234349
:100E40004C8923438C892343CC8923431A43028052
:100E5000838B4FF2FF74234083830B8A038210BD80
:100E6000704710B500F002F810BD00000CB500206E
:100E7000019000903348006840F4803031490860A8
:100E800000BF3048006800F4003000900198401C1A
:100E90000190009818B90198B0F5A06FF1D12948D8
:100EA000006800F4003010B10120009001E0002043
:100EB00000900098012843D12348006840F01000BA
:100EC000214908600846006820F0030008600846D1
:100ED000006840F0020008601A48406819494860FC
:100EE0000846406848600846406840F480604860B2
:100EF0000846406820F47C1048600846406840F48A
:100F0000E81048600846006840F08070086000BF44
:100F10000C48006800F000700028F9D009484068CB
:100F200020F00300074948600846406840F002008E
:100F3000486000BF0348406800F00C000828F9D161
:100F40000CBD00000010024000200240704700006D
:100F500010B51348006840F00100114908600846C8
:100F60004068104908400E494860084600680E492C
:100F700008400B4908600846006820F4802008609B
:100F80000846406820F4FE0048604FF41F00886067
:100F9000FFF767FF4FF000600449086010BD0000D4
:100FA000001002400000FFF8FFFFF6FE08ED00E031
:100FB00010B50121880700F0A1F928B102F030F93D
:100FC0000121880700F08EF810BD000010B5012146
:100FD000134800F093F9F0B11248007812490978EB
:100FE00088420EDA0F480078401C0E490870084607
:100FF00000780E49097888420DD101200C4908700B
:1010000009E001200B490870002006490870002102
:10101000034800F06AF80121014800F063F810BDB0
:10102000000400405C0100205B0100205E01002004
:101030005D0100205A0100207FB505460C460121C4
:101040000220FFF7B1FDADF80850ADF804400020D4
:10105000ADF80A00ADF8060001A90E4800F0C8F985
:10106000012211460B4800F05AF90121094800F00D
:1010700039F81D208DF8000002208DF801000320B2
:101080008DF8020001208DF803006846FFF7EAFCA6
:101090007FBD00000004004010B50121094800F0A8
:1010A0002DF950B10021074800F01FF80020054934
:1010B000243108800120044908700121014800F012
:1010C00011F810BD000800405F01002021B1028826
:1010D00042F08002028004E002884FF67F731A40DB
:1010E00002807047CA430282704721B1028842F0F1
:1010F0000102028004E002884FF6FE731A4002806B
:1011000070470A46002101884FF68F73194011433A
:101110000180704710B504466848844208D1012117
:10112000C014FFF771FD0021E014FFF76DFDC4E06E
:10113000B4F1804F08D101210846FFF745FD002199
:101140000120FFF741FDB8E05D48844208D101214C
:101150000220FFF739FD00210220FFF735FDACE04A
:101160005848844208D101210420FFF72DFD0021B9
:101170000420FFF729FDA0E05348844208D1012153
:101180000820FFF721FD00210820FFF71DFD94E056
:101190004E48844208D101211020FFF715FD00219F
:1011A0001020FFF711FD88E04948844208D1012151
:1011B0002020FFF709FD00212020FFF705FD7CE03E
:1011C0004448844208D101214014FFF71DFD00214D
:1011D0006014FFF719FD70E03F48844209D10121F6
:1011E000C804FFF711FD00214FF40020FFF70CFDAC
:1011F00063E03A48844209D101210805FFF704FD64
:1012000000214FF48010FFF7FFFC56E03448844281
:1012100009D101214805FFF7F7FC00214FF4001028
:10122000FFF7F2FC49E02F48844208D10121402019
:10123000FFF7CAFC00214020FFF7C6FC3DE02A482A
:10124000844208D101218020FFF7BEFC00218020CC
:10125000FFF7BAFC31E02548844208D1012180150E
:10126000FFF7B2FC0021A015FFF7AEFC25E02048F7
:10127000844209D101210804FFF7C6FC00214FF484
:101280008030FFF7C1FC18E01A48844209D10121DF
:101290004804FFF7B9FC00214FF40030FFF7B4FC1D
:1012A0000BE01548844208D101218804FFF7ACFC0B
:1012B00000214FF48020FFF7A7FC10BD002C014057
:1012C0000004004000080040000C004000100040F6
:1012D0000014004000340140004C01400050014027
:1012E0000054014000180040001C00400020004055
:1012F00000400140004401400048014030B5024632
:10130000002000230024158A05EA0103958905EAD7
:10131000010413B10CB1012000E0002030BD1AB16E
:1013200083890B43838102E083898B4383817047E8
:1013300070B5002400220023058C4FF6EF7635406F
:101340000584028C8388048B48F6FF752C404FF689
:10135000FF452C400D884FF6FF7606EA05252C4305
:101360004FF6DF752A400D8906EA05152A434D8898
:1013700006EA05152A43154DA84202D0144DA8428D
:101380001DD14FF67F752A404D894FF6FF7606EA4C
:1013900005152A434FF6BF752A408D8806EA0515C4
:1013A0002A434FF6FF352B404FF2FF752B408D89B6
:1013B00006EA85052B43CD8906EA85052B43838004
:1013C0000483CD880587028470BD0000002C014095
:1013D000003401400A460021018B4FF2FF7319408F
:1013E0004FF6FF7303EA022319430183704700009D
:1013F000002202881D4B98420ED01D4B98420BD004
:10140000B0F1804F08D01B4B984205D01A4B984240
:1014100002D01A4B984204D14FF68F731A404B8872
:101420001A43174B984207D0164B984204D04FF6F8
:10143000FF431A40CB881A4302808B8883850B8830
:1014400003850A4B98420BD0094B984208D00E4BAB
:10145000984205D00D4B984202D00D4B984201D1D5
:101460000B7A03860123838270470000002C014021
:10147000003401400004004000080040000C00401F
:1014800000100040001400400040014000440140B2
:101490000048014008B5022000F00EFE00F00400F4
:1014A00018B10421022001F09AFC022000F00DFE88
:1014B00010490880002807DD0F48104B1E221049F4
:1014C0000090022001F080FA0D480078AA280FD180
:1014D0000B48407811280BD104200A4908700020DD
:1014E00009490870064908700120487007490870CA
:1014F00008BD00007A0000203801002030010020E3
:10150000CF0100202D0000202F000020D800002057
:1015100038B51D48007808B9012000E000201A49BC
:101520000978042901D1012100E000210843C8B154
:1015300055201649087016480078887015480078BC
:10154000C87000208875C875002408E00F48005D49
:101550000E49C97D48400D49C875601CC4B2162C9F
:10156000F4DB1C2541F288300B49088008460088CE
:101570000A4B2A4605490090022001F087FB6420AF
:1015800000F090FC38BD00002D000020ED0100208F
:101590009600002097000020380100203401002030
:1015A00000B585B0012144F20400FFF71DFB4FF4A4
:1015B0000070ADF8100018208DF8130003208DF88E
:1015C000120004A91A48FFF7F9F84FF48060ADF84B
:1015D000100004208DF8130004A91548FFF7EEF859
:1015E0004FF4964000900020ADF80400ADF80600DE
:1015F000ADF80800ADF80C000C20ADF80A00694603
:101600000C4800F05BF901210A4800F0EEF8FFF702
:1016100016FA012240F22551064800F029F901226C
:1016200040F22441034800F023F905B000BD00005A
:10163000000801400038014010B540F22551134820
:1016400000F0ECF880B1114800F0A4F91049114AFB
:10165000128888540F480088401C0E49088040F2C8
:1016600025510A4800F0B2F840F22441074800F042
:10167000D5F850B1054800880448001D00880020B6
:101680000449088001200449087010BD0038014059
:10169000740A0020140100201701002010B540F248
:1016A00025511F4800F0BAF880B11D4800F072F9CA
:1016B0001C491D4A128888541B480088401C1A493E
:1016C000088040F22551164800F080F8164800883E
:1016D00007280DD140F22551114800F077F800207D
:1016E000114908800120114908700720104908702D
:1016F0000C484078832811D10B48008805280DD16B
:1017000040F22551064800F061F8002006490880A3
:1017100001200649087005200549087010BD000029
:1017200000440040FE000020FC00002005010020D5
:101730000601002010B540F225511F4800F06EF858
:1017400080B11D4800F026F91C491D4A12888854B2
:101750001B480088401C1A49088040F22551164851
:1017600000F034F81648008807280DD140F22551C2
:10177000114800F02BF80020114908800120114980
:1017800008700720104908700C484078832811D150
:101790000B48008805280DD140F22551064800F07D
:1017A00015F8002006490880012006490870052028
:1017B0000549087010BD0000004800400A010020E3
:1017C00008010020110100201201002010B50022A4
:1017D000002340F66A14A14200D100BF0A1201247E
:1017E0009440A3B2DC43048010BD21B1828942F44D
:1017F0000052828104E082894DF6FF731A40828193
:10180000704702460020B1F5007F00D100BF138869
:101810000B400BB1012000E00020704770B502467C
:10182000002400230025002040F66A16B14200D1B2
:1018300000BFC1F3421501F01F03012606FA03F3AE
:10184000012D02D19689334006E0022D02D1168A7D
:10185000334001E0968A33400C12012606FA04F464
:101860001688344013B10CB1012000E0002070BD97
:10187000F0B50346002400260025002040F66A1734
:10188000B94200D100BF1846C1F3421401F01F064F
:10189000012707FA06F5012C01D10C3004E0022CD7
:1018A00001D1103000E014301AB107682F430760EF
:1018B00002E00768AF430760F0BD00002DE9F04784
:1018C00086B005460E460024A24600BFA14600276A
:1018D000B08900B100BF2F462C8A4CF6FF7004403F
:1018E000F08804432C82AC894EF6F3100440B08893
:1018F00031890843718908430443AC81AC8A4FF6AF
:10190000FF400440B0890443AC8201A8FFF78CF982
:101910001F48874202D1DDF810A001E0DDF80CA0DD
:10192000A88900F4004040B10AEBCA0000EB0A109D
:1019300031684900B0FBF1F807E00AEBCA0000EBA0
:101940000A1031688900B0FBF1F86420B8FBF0F0B0
:1019500004012009642101FB1089A88900F40040DA
:1019600040B1322000EBC900B0FBF1F000F00700FD
:10197000044308E0322000EB09106421B0FBF1F0D1
:1019800000F00F0004432C8106B0BDE8F087000092
:101990000038014001468888C0F308007047C1F351
:1019A000080282807047000010B5044621460548B1
:1019B000FFF7F5FF00BF80210248FFF722FF002854
:1019C000F9D010BD0038014000BFFEE70FB4054B51
:1019D00010B503A9044A029800F018F810BC5DF88D
:1019E00014FB0000512000086001002002E008C83C
:1019F000121F08C1002AFAD170477047002001E089
:101A000001C1121F002AFBD1704700002DE9FF4FD2
:101A10008DB00F460546002606E025280BD0DDE9EF
:101A20000F1290476D1C761C28780028F5D111B054
:101A30003046BDE8F08F0024A246A1460122EC49C1
:101A400000E0044315F8013F203B02FA03F008428E
:101A5000F7D128782A2810D06FF02F022878A0F12B
:101A60003001092914D80AEB8A0102EB410144F044
:101A7000020400EB010A6D1CF0E701CF5FEA000AE7
:101A800003D544F40054CAF1000A44F002046D1C6A
:101A900028782E2817D115F8010F44F004042A28BD
:101AA0000ED06FF02F022878A0F1300109290AD852
:101AB00009EB890102EB410100EB01096D1CF2E722
:101AC00057F8049B6D1C28786C280FD006DC4C2836
:101AD00017D068280DD06A2814D104E0742810D0DB
:101AE0007A280FD10DE044F400140AE044F4801485
:101AF00001E044F440146978814202D104F5801475
:101B00006D1C6D1C2A786E2A1FD00CDC632A31D024
:101B100004DC002A8BD0582A11D1A3E0642A68D0B3
:101B2000692A0CD165E0732A2ED004DC6F2A73D0A9
:101B3000702A04D19BE0752A6FD0782A6ED01046A7
:101B4000DDE90F129047761C50E1C4F302500228E1
:101B500006D0032809D0042801CF09D0066045E14A
:101B600001CFF117C0E9006140E101CF06803DE1FE
:101B700006703BE117F8040B8DF8000000208DF88B
:101B80000100EB46012003E057F804BB4FF0FF30A3
:101B900061074FF0000102D40DE008F10101884611
:101BA00049450FDA8045F8DB1BF808100029F4D10D
:101BB00008E008F1010188468142FADB1BF80810B1
:101BC0000029F6D1DDE90F23AAEB08008146214662
:101BD00000F036F9304400EB080604E0DDE90F12AE
:101BE0001BF8010B9047B8F10108F7D2214648468F
:101BF000F7E00A21C4F302534FF0000B0891022BC7
:101C000004D001CFC117032B09D00AE0FF1D27F034
:101C10000707F7E8020108E032E01FE020E000B229
:101C2000C117042B01D140B2C117031E71F100038B
:101C300007DA4FF0000CD0EB0C006CEB01012D2308
:101C400002E0230504D52B238DF82430012303E083
:101C5000E30701D02023F7E7984658E00A2110E077
:101C600010210EE010204FF0000B08900CE0102126
:101C70004FF0000B44F004044FF00809089103E012
:101C800008214FF0000B0891C4F30253022B04D03B
:101C900001CF0021032B06D006E0FF1D27F0070728
:101CA000F7E8020103E080B2042B00D1C0B24FF08C
:101CB000000823072BD5702A07D0DDF820C08CF050
:101CC000100C5CEA0B0C05D00EE040238DF824309C
:101CD000012308E050EA010306D030238DF82430B8
:101CE0008DF8252002239846DDF820C08CF0080CE2
:101CF0005CEA0B0C0BD150EA010301D1630706D556
:101D000030238DF824304FF00108A9F10109582A39
:101D100004D038A20B9208AA0A920BE03AA2F9E783
:101D20005B46089AFEF750FA0B9B9B5C0A9A521E80
:101D30000A92137050EA0102F2D10A98ADEB00004A
:101D400000F1200B600702D524F4803401E04FF04D
:101D50000109D94502DDA9EB0B0000E0002000EBF2
:101D60000B0141440890AAEB010AE00306D4DDE927
:101D70000F232146504600F063F806444FF0000957
:101D800008E009A911F80900DDE90F12904709F1EF
:101D90000109761CC145F4DBE0030CD5DDE90F2316
:101DA0002146504600F04CF8064404E0DDE90F12ED
:101DB00030209047761C0899481E08900029F5DCD1
:101DC00008E00A980A990078491C0A91DDE90F1287
:101DD0009047761CBBF10001ABF1010BF1DC214611
:101DE0005046DDE90F2300F019F806446D1C1BE690
:101DF00009280100303132333435363738396162E1
:101E000063646566000000003031323334353637A4
:101E10003839414243444546000000002DE9F04175
:101E2000044600251E461746880404D405E03946BA
:101E30002020B0476D1C641EF9D52846BDE8F0810E
:101E40002DE9F041044600251E469046C80301D501
:101E5000302700E02027880404D505E041463846B5
:101E6000B0476D1C641EF9D52846BDE8F08110B559
:101E700004464FF4847101EB44101021FEF757FD26
:101E800000BF4FF4847101EB4410FEF731FD0028D0
:101E9000F7D14FF4027101EB4410FF21FEF747FD2B
:101EA00010BD000001460D4A12884A434FF0E0235E
:101EB0005A6100229A6101221A6100BF4FF0E022AC
:101EC000106900F001021AB100F48032002AF5D046
:101ED00000224FF0E0231A619A61704758010020F8
:101EE00001460D4A12784A434FF0E0235A6100221E
:101EF0009A6101221A6100BF4FF0E022106900F0E0
:101F000001021AB100F48032002AF5D000224FF00D
:101F1000E0231A619A6170475601002010B5022033
:101F200000F0FDF810B1222816D107E000230B487D
:101F300002880221084601F0ADF80DE00A20FFF703
:101F4000B1FF022000F0B8F800F0040018B104213D
:101F5000022000F044FF00BF00BF10BD2E01002092
:101F60002DE9F04106460F46154600F08FF9A020F6
:101F700000F062F900F0B2F900B125E0F8B200F02B
:101F80005BF900F0ABF900B11EE000F07FF9A12091
:101F900000F052F900F0A2F900B115E000240CE0C5
:101FA00000F028F93055681EA04202D000F0EEF88B
:101FB00001E000F00BF9601C84B2AC42F0DB00F0F1
:101FC0007DF90120BDE8F08100F078F90020F9E703
:101FD0002DE9F047074688469146464600242BE007
:101FE00014B106F00700E0B900F068F900250AE036
:101FF00000F04CF9A02000F01FF900F06FF900B9D3
:1020000003E0681C85B2642DF2DB00BFB5F57A7F72
:1020100000D118E0F0B200F00FF900F05FF900B164
:1020200011E0385D00F008F900F058F900B10AE05D
:10203000701C86B2601C84B24C45D1DB00F03EF9C6
:102040000120BDE8F08700F039F90020F9E7000031
:1020500070B504460D46E1B20548FFF7A0FC00BF8D
:1020600040210348FFF7CDFB0028F9D0204670BD82
:102070000038014010B5044604222146900101F0C9
:10208000FFF810BD0146024830F81100704700000B
:10209000B80A002010B50446042221464FF47060AF
:1020A00001F0EEF810BD10B50446042221464FF4AD
:1020B000A06001F0E5F810BD10B504464FF40271C0
:1020C00001EB4410FEF714FC10BD70B5044600256A
:1020D000002600BF42F2086101EB4410FEF708FC45
:1020E000064642F2087101EB4410FEF701FC00EBDA
:1020F000062086B27EB142F2086101EB4410FEF781
:10210000F7FB054642F2087101EB4410FEF7F0FBC5
:1021100000EB052085B2B542DCD1284670BD10B574
:1021200004464FF4427101EB4410FEF7E1FB10BD91
:1021300008B5FEF7EFFD01214FF4A070FEF754FD46
:102140004FF40060ADF8000003208DF8020010206D
:102150008DF8030069460B48FEF730FB4FF48071A1
:102160000948FEF7C1FB4FF48060ADF80000032082
:102170008DF8020048208DF8030069460248FEF7FA
:102180001DFB08BD00100140000C014010B580206F
:102190000949086000F012F840200749091F08604B
:1021A00000F00CF840200449086000F007F8802097
:1021B0000149091F086010BD140C0140002001E016
:1021C000411CC8B20A28FBDB7047000010B5802014
:1021D00007490860FFF7F2FF402005490860FFF754
:1021E000EDFF40200249091D0860FFF7E7FF10BD21
:1021F000100C014070B50024002516E06006040EA6
:1022000040200C490860FFF7D9FF0A4808380068E9
:1022100000F0800008B1601CC4B240200549091DCF
:102220000860FFF7CBFF681CC5B2082DE6DB20462F
:1022300070BD0000100C014070B50446002520E080
:1022400004F0800018B180200F49086003E080206E
:102250000D49091D0860FFF7B1FF40200A490860D9
:10226000FFF7ACFF40200849091D0860072D02D187
:102270008020091F08606006040EFFF79FFF681C9E
:10228000C5B2082DDCDB70BD100C014010B58020FC
:102290000949086040200860FFF790FF8020064948
:1022A000091D0860FFF78AFF40200349091D0860E7
:1022B000FFF784FF10BD0000100C014010B5802016
:1022C000054908604020091F0860FFF777FF80205C
:1022D0000149091F086010BD140C014010B5802091
:1022E0000C490860FFF76AFF40200A490860FFF7C1
:1022F00065FF08480838006800F0800008B1012434
:1023000000E0002440200349091D0860FFF756FF44
:10231000204610BD100C014010B5002000F09EFFBB
:1023200010BD10B5012000F099FF10BD002600BFC0
:102330000020FE490870482000F052FFFFF730F9F6
:1023400041F61F4142F20F70FEF776FE0820F84971
:102350000870FDF7FDFFFEF72FF9FEF7C5FBFFF74D
:10236000E7FE00F033FC00F07FFE00F043FDF14992
:10237000F14800F0F1FEFFF7D1FD0020EB490870B5
:102380000120EE49087001260020ED490870ED4952
:1023900008705520FFF708FB4FF4FA70FFF782FD35
:1023A0004FF4FA70FFF77EFD4FF4FA70FFF77AFDF5
:1023B0004FF4FA70FFF776FD4FF4FA70FFF772FDF5
:1023C0004FF4FA70FFF76EFD0020DF49088000240B
:1023D00005E00020DD4941F82400601CC4B2142C43
:1023E000F7DB1420D2490870C2E2012E08D1002682
:1023F000D7480078D749087008460078FFF7D4FA24
:10240000D54800780128EFD10020D3490870FFF7A4
:102410007FF8C648007810B1042877D182E2C74817
:102420000078062873D2DFE800F0730372FDFCFB2E
:102430001020CA4948705520FFF7B6FA0121C84854
:10244000FEF753FEC148C068C0490861084680686D
:10245000C860084640688860084600684860C1480F
:10246000808808600846006849680844B749896858
:102470000844B649C9680844B449096908440521B3
:1024800090FBF1F0B8490860B6488078B3494871CC
:10249000B448408800120871B24800784873B148C7
:1024A000008800120873B049098888B2C11700EB90
:1024B00011610912A0EB0121A84AD176AA49098825
:1024C00088B2C11700EB1161090A9176A74800781C
:1024D00001281AD1002099490870AA20FFF764FA50
:1024E0004FF49670FFF7DEFC00219D48FEF7FDFDDE
:1024F00000209E4908709E490870914908709349D0
:102500008860486008609049088009E22EE206E28F
:10251000102092494870AA20FFF746FA8B4840687D
:102520008A4988600846006848608E48808808604C
:102530000020904908708B488088B0F5005F06DB6A
:102540008848808843F6FF71081A80490860FEF7C2
:10255000A1FF80480078012806D17E480078FFF767
:1025600023FA8548854908607A480078022806D110
:1025700083488249086077480078FFF715FA754864
:102580000078032806D17F487C49086071480078AC
:10259000FFF70AFA6D4800686C49496808446B49BE
:1025A00089680844032190FBF1F52846FDF7CCFD2E
:1025B000754908606B488078684948716948408867
:1025C0000012087167480078487366480088001256
:1025D00008736D480068FDF7D9FD85B2E81705EB73
:1025E00010600012A5EB00205C4948726648006844
:1025F000FDF7CCFD85B2E81705EB1060000A5749DE
:10260000087252480068B0F57A7F04DA4E480088B4
:10261000401C4D4908804C480088032829DB02E013
:1026200011E1C3E029E00320444908700020464935
:1026300008804E4908704E4908705520FFF7B4F9DC
:102640004FF4FA70FFF72EFC4FF4FA70FFF72AFCF4
:102650004FF4FA70FFF726FC4FF4FA70FFF722FCF4
:10266000AA20FFF7A1F90020384988604860086077
:1026700002E000203149087052E1112037494870CA
:1026800032484068314988600846006848603548EB
:1026900080880860334880783049487131484088E4
:1026A000001208712F48007848732E4800880012E5
:1026B000087335480068FDF769FD85B2E81705EB3A
:1026C00010600012A5EB0020244948722E480068D3
:1026D000FDF75CFD85B2E81705EB1060000A1F49A5
:1026E00008723220FFF7DEFB18490868FDF72CFD61
:1026F0000546224801682846FDF75CFD55D213497E
:102700004868FDF721FD05461C4801682846FDF78D
:1027100051FD4AD20D498868FDF716FD0546174858
:1027200001682846FDF746FD3FD22FE02D0000202E
:102730005B0100204D010020450100202E000020FB
:102740001800002022000020240000206401002046
:1027500000F807082C000020FB000020ED010020FD
:102760000004004064020020DC0000205A01002028
:102770005C010020D800002000504F4514000020CC
:102780000090284500C0BD4428000020042079495D
:102790000870072078490870002078490870784947
:1027A000087001217748FEF7A0FCB9E012207649B5
:1027B00048707648406875498860084600684860F7
:1027C0007348808808600868FDF7BEFC714908609E
:1027D0006F4880786C4948716D48408800120871D4
:1027E0006B48007848736A4800880012087369488B
:1027F0000068FDF7B2FC0546C01705EB106000123B
:10280000A5EB00206049487262480068FDF7A5FC0E
:102810000546C01705EB1060000A5B49087257486F
:10282000007801280ED100205549087053490870DE
:102830000A205149087000215248FEF756FC052035
:102840004C4908706CE013204F4948704F4840686D
:102850004E4988600846006848604D488088086096
:10286000FEF718FE4A488088B0F5005F06DB48484E
:10287000808843F6FF71081A44490860434800689D
:10288000424949680844414989680844032190FB4A
:10289000F1F52846FDF758FC3E4908603C48807831
:1028A000394948713A484088001208713848007820
:1028B0004873374800880012087336480068FDF7EF
:1028C0004CFC0546C01705EB10600012A5EB00207C
:1028D0002D4948722F480068FDF73FFC0546C01798
:1028E00005EB1060000A284908722848006841F684
:1028F0002C21884212DB2548406888420EDB2348A1
:10290000806888420ADB00201D4908701B49087056
:1029100018490870204908802049087000E000BF6D
:1029200000BF24E01E48007810B104281BD116E037
:10293000FDF7ECFE3520FDF779FE1A48FDF77CFE29
:10294000FDF7BAFE1848C1780020FDF7FFFE3220DF
:10295000FFF7A8FA012604201149087004E00020BE
:102960001249087000E000BF00BF00E000BF00BFD8
:102970003BE500002E0000205B0100205A010020F2
:102980005C01002000040040ED01002064010020F3
:1029900064020020280000202400002018000020ED
:1029A0002F00002000F80708CF0100202D00002094
:1029B00010B5122200210348FFF7D2FA0A20FFF7D0
:1029C0008FFA10BDA60A00202DE9FC5F05468A4655
:1029D00091461E46DDF830800020009001900027CF
:1029E00000248346B9F1000F7EDD42F6080101EBB9
:1029F0004510FDF77DFF044642F6081101EB451036
:102A0000FDF776FF00EB042084B2200200EB4510B6
:102A100000F1180B082101EB4510FDF769FF00F0EC
:102A20000700022804D0032844D0042879D179E093
:102A300008226946584600F023FC04F1080084B2DD
:102A40009DF8000030709DF8010070709DF8020044
:102A5000B0709DF80300F0709DF80400A8F8000025
:102A60009DF8050098F8001000EB0120A8F8000080
:102A70009DF806709DF8070000EB072087B2200242
:102A800000EB451000F1180B3A465146584600F04D
:102A9000F7FBE01984B2210A42F6080202EB451066
:102AA000FDF745FFE1B242F6081202EB4510FDF7D3
:102AB0003EFF6BE006226946584600F0E1FBA01D90
:102AC00084B29DF8000030709DF8010070709DF890
:102AD0000200B0709DF80300F0709DF804709DF83E
:102AE000050000EB072000E061E087B2200200EB68
:102AF000451000F1180B3A465146584600F0C0FB0D
:102B0000E01984B2210A42F6080202EB4510FDF7F3
:102B10000EFFE1B242F6081202EB4510FDF707FF87
:102B200034E032E002226946584600F0A9FBA01CBE
:102B300084B29DF800709DF8010000EB0720801E14
:102B400087B240F2EA50874204DD1AA0FEF73EFF4A
:102B500000BFFEE7200200EB451000F1180B3A46DB
:102B60005146584600F08CFBE01984B2210A42F627
:102B7000080202EB4510FDF7DAFEE1B242F6081258
:102B800002EB4510FDF7D3FE00E000BF00BF4FF49D
:102B9000847101EB45104021FDF7C9FE00BF4FF4E1
:102BA000847101EB4510FDF7A3FE0028F7D13846EC
:102BB000BDE8FC9F646174615F6C656E206F766533
:102BC0007220313531340D0A0000000010B54FF489
:102BD00000610848FDF786FE0220FFF781F94FF4F7
:102BE00000610448FDF780FE4FF4C860FFF75AF912
:102BF00010BD0000000C01402DE9F04104460F46D5
:102C000016460025A8462EB9214618A0FEF7DEFE7E
:102C1000BDE8F08142F2084101EB4410FDF768FE87
:102C2000054642F2085101EB4410FDF761FE00EB4E
:102C3000052085B2280200EB441000F1100832464E
:102C40003946404600F050FBA81985B2290A42F2E5
:102C5000084202EB4410FDF76AFEE9B242F2085264
:102C600002EB4410FDF763FE00BFD1E743483A2072
:102C7000256420556E657870656374656431206CD9
:102C8000656E67746820300D0A0000002DE9F0477A
:102C90000446894616461D46089F4FF00008204608
:102CA000FFF7F0F9B04204DA2046FFF7EBF980466F
:102CB00000E0B046287828B9687818B9A87808B92B
:102CC000E87800B117B94FF0000863E0297840F6C2
:102CD000084202EB4410FDF72AFE697840F60852DC
:102CE00002EB4410FDF723FEA97840F6086202EBE0
:102CF0004410FDF71CFEE97840F6087202EB441020
:102D0000FDF715FE390A41F2080202EB4410FDF707
:102D10000EFEF9B241F2081202EB4410FDF707FE75
:102D2000424649462046FFF767FF4FF4847101EBA6
:102D300044102021FDF7FBFD00BF4FF4847101EB2F
:102D40004410FDF7D5FD0028F7D112E04FF40271D1
:102D500001EB4410FDF7CCFD00F0080048B14FF442
:102D6000027101EB44101821FDF7E1FD0020BDE8E0
:102D7000F0874FF4027101EB4410FDF7B9FD00F04C
:102D800010001028E2D14FF4027101EB4410102121
:102D9000FDF7CDFD4046EAE710B504460422214682
:102DA000900100F0A1FA10BD10B50446062221469C
:102DB0004FF4106000F098FA10BD10B504460422DC
:102DC00021464FF4706000F08FFA10BD10B5044634
:102DD000042221464FF4A06000F086FA10BD70B5C1
:102DE00004460D464FF4027101EB44102946FDF7ED
:102DF0009EFD70BD08B5534853490A680260898832
:102E0000818052490968C0F8061051490968C0F824
:102E10000A1050490968C0F80E104F490968C0F8F7
:102E200012104E48007810B94DA0FEF7CFFD4B4868
:102E30000078022825D1FFF7BBFD51480078D8B9AA
:102E40004F484078082817D14D488078DC2813D1A6
:102E50004CA0FEF7BBFD3B484949D1F80610C0F82D
:102E600006104749D1F80A10C0F80A104449D1F8B1
:102E70000E10C0F80E1004E047A0FEF7A7FD00F00A
:102E800067FA36480078012822D151480078012895
:102E900018D150A0FEF79AFD2A485249D1F80610E1
:102EA000C0F806104F49D1F80A10C0F80A104D4971
:102EB000D1F80E10C0F80E104A49D1F81210C0F81F
:102EC000121005E048A0FEF781FD25A0FEF77EFD6B
:102ED00001201C49887600211A48C1760A30FFF784
:102EE00075FF18480E30FFF757FF1648801DFFF793
:102EF00064FF1648FFF7CEF81448C07800901348D6
:102F000083784278017840A0FEF760FD1048FFF713
:102F1000CAF80F48C07800900D488378427801784D
:102F200041A0FEF753FD0B48FFF7A4F80948C0780D
:102F30000090084883784278017843A0FEF746FD68
:102F400008BD00008A0A0020180100201E01002090
:102F500022010020260100202A0100203A01002041
:102F600020CAB9D3C3B6A8D2E5B5C44950D0C5CF9D
:102F7000A2C5E4D6C357353530300D0A0000000035
:102F8000A60A00202049502066726F6D20454550EA
:102F9000524F4D0D0A00000020454550524F4DCE76
:102FA000B4C5E4D6C32CCAB9D3C3B6A8D2E5B5C458
:102FB0004950D0C5CFA2C5E4D6C357353530302CE3
:102FC000B2A2D0B4C8EB454550524F4D0D0A000097
:102FD0003B0100202049502066726F6D2044484319
:102FE000500D0A00D80A00202044484350D7D3B3DC
:102FF000CCD0F2CEB4D4CBD0D02CBBF2D5DFB2BB88
:10300000B3C9B9A60D0A0000205735353030204924
:1030100050B5D8D6B72020203A2025642E25642E1E
:1030200025642E25640D0A0020573535303020D711
:10303000D3CDF8D1DAC2EB203A2025642E25642EB8
:1030400025642E25640D0A0020573535303020CDFB
:10305000F8B9D820202020203A2025642E25642E7F
:1030600025642E25640D0A0010B5074807490A6833
:10307000026089888180FFF797FE054803490A6846
:1030800002608988818010BD8A0A00201801002012
:10309000D80A00202DE9F04104460D461646984610
:1030A00005F00F0001280FD005F00F0002280BD00B
:1030B00005F00F00032807D005F00F00042803D007
:1030C00005F00F00052841D12046FEF7D0FE45EA65
:1030D0000801082202EB4410FDF729FC76B1310A01
:1030E0004FF4816202EB4410FDF721FCF1B24FF482
:1030F000A16202EB4410FDF71AFC15E015480088A8
:10310000401C144908800A461288110A4FF4816253
:1031100002EB4410FDF70BFC0E4A11784FF4A1624C
:1031200002EB4410FDF703FC4FF4847101EB4410F3
:103130000121FDF7FCFB00BF4FF4847101EB44104B
:10314000FDF7D6FB0028F7D1012700E0002738461D
:10315000BDE8F0812E0100202DE9F04105460E4624
:103160000027B846002433E0295D41F6087202EBDF
:103170004410FDF7DCFB315D41F6086202EB4410C0
:10318000FDF7D5FB0020144921F81400134921F85C
:103190001400B7F5804F07DC285D4FF6FF7101EA98
:1031A00080200D4921F81400B8F5804F07DC305D10
:1031B0004FF6FF7101EA8020084921F81400064803
:1031C00030F814000744054830F814008044641CAB
:1031D000082CC9DBBDE8F081B80A0020C80A00202D
:1031E0004FF0E021096921F004014FF0E022116164
:1031F000C21700EB5272C2F3C702074B1A7019468E
:10320000097801EB4102C2EBC1114FF6FF7202EAED
:10321000C101024A11807047560100205801002068
:103220000B480068401C0A49086008460068B0F571
:103230007A7F0BD30020086006480068401C0549CF
:10324000086005480078401C03490870704700007A
:103250003C010020400100204401002010B504463C
:103260002CB94FF480510548FDF73CFB05E0012CDB
:1032700003D121030148FDF737FB10BD000C0140CD
:103280002DE9F04104460F461546002615B910A059
:10329000FEF79CFBFFF740F8C4F30740FDF741FB46
:1032A000C4F30720FDF73DFB04F0F800FDF739FB00
:1032B000002605E00020FDF734FBB855701C86B2EF
:1032C000AE42F7DBFFF72DF82846BDE8F08100009D
:1032D000556E657870656374656432206C656E67E1
:1032E000746820300D0A00002DE9F04104460F46B5
:1032F0001546002615B910A0FEF768FBFFF70CF87D
:10330000C4F30740FDF70DFBC4F30720FDF709FBED
:1033100004F0F801091DC8B2FDF703FB002604E024
:10332000B85DFDF7FEFA701C86B2AE42F8DBFEF720
:10333000F8FF2846BDE8F081556E657870656374C6
:10334000656432206C656E67746820300D0A000079
:1033500010B50024122221460348FEF739FE0A2048
:10336000FEF7A0FD10BD00008A0A00208C33000883
:103370000000002064010000FA0200081034000878
:10338000640100208C110000FC190008412D01028D
:103390000304042009060708090204060803187A32
:1033A0004416C40994112D1A050203142C012B0193
:1033B00003054C840A0208001A583950303F0D505A
:1033C00036303D46300D5033393D4632310D5035A3
:1033D000333F0D23D00722D202162018096231395B
:1033E000323136383001031E3131100D08DC111135
:1033F00011C0A80642FFFFFF19081B0172011BD272
:10340000040A2A5804B38813DA020161820A000010
:04000005080000ED02
:00000001FF
